{
  "contractName": "Wager",
  "abi": [
    {
      "constant": false,
      "inputs": [
        {
          "name": "myid",
          "type": "bytes32"
        },
        {
          "name": "result",
          "type": "string"
        }
      ],
      "name": "__callback",
      "outputs": [],
      "payable": false,
      "stateMutability": "nonpayable",
      "type": "function"
    },
    {
      "constant": false,
      "inputs": [
        {
          "name": "myid",
          "type": "bytes32"
        },
        {
          "name": "result",
          "type": "string"
        },
        {
          "name": "proof",
          "type": "bytes"
        }
      ],
      "name": "__callback",
      "outputs": [],
      "payable": false,
      "stateMutability": "nonpayable",
      "type": "function"
    },
    {
      "constant": true,
      "inputs": [],
      "name": "resolved",
      "outputs": [
        {
          "name": "",
          "type": "bool"
        }
      ],
      "payable": false,
      "stateMutability": "view",
      "type": "function"
    },
    {
      "constant": true,
      "inputs": [],
      "name": "judge",
      "outputs": [
        {
          "name": "",
          "type": "address"
        }
      ],
      "payable": false,
      "stateMutability": "view",
      "type": "function"
    },
    {
      "constant": true,
      "inputs": [],
      "name": "initiator",
      "outputs": [
        {
          "name": "",
          "type": "address"
        }
      ],
      "payable": false,
      "stateMutability": "view",
      "type": "function"
    },
    {
      "constant": true,
      "inputs": [],
      "name": "acceptor",
      "outputs": [
        {
          "name": "",
          "type": "address"
        }
      ],
      "payable": false,
      "stateMutability": "view",
      "type": "function"
    },
    {
      "constant": true,
      "inputs": [],
      "name": "amount",
      "outputs": [
        {
          "name": "",
          "type": "uint256"
        }
      ],
      "payable": false,
      "stateMutability": "view",
      "type": "function"
    },
    {
      "constant": true,
      "inputs": [],
      "name": "winner",
      "outputs": [
        {
          "name": "",
          "type": "address"
        }
      ],
      "payable": false,
      "stateMutability": "view",
      "type": "function"
    },
    {
      "constant": true,
      "inputs": [],
      "name": "pending",
      "outputs": [
        {
          "name": "",
          "type": "bool"
        }
      ],
      "payable": false,
      "stateMutability": "view",
      "type": "function"
    },
    {
      "inputs": [
        {
          "name": "initiatorAddress",
          "type": "address"
        },
        {
          "name": "judgeAddress",
          "type": "address"
        }
      ],
      "payable": true,
      "stateMutability": "payable",
      "type": "constructor"
    },
    {
      "constant": true,
      "inputs": [],
      "name": "viewConditions",
      "outputs": [
        {
          "name": "",
          "type": "uint256"
        },
        {
          "name": "",
          "type": "address"
        },
        {
          "name": "",
          "type": "address"
        }
      ],
      "payable": false,
      "stateMutability": "view",
      "type": "function"
    },
    {
      "constant": false,
      "inputs": [
        {
          "name": "newAddress",
          "type": "address"
        }
      ],
      "name": "changeJudge",
      "outputs": [],
      "payable": false,
      "stateMutability": "nonpayable",
      "type": "function"
    },
    {
      "constant": false,
      "inputs": [
        {
          "name": "newAmount",
          "type": "uint256"
        }
      ],
      "name": "changeAmount",
      "outputs": [],
      "payable": true,
      "stateMutability": "payable",
      "type": "function"
    },
    {
      "constant": false,
      "inputs": [],
      "name": "takeWager",
      "outputs": [],
      "payable": true,
      "stateMutability": "payable",
      "type": "function"
    },
    {
      "constant": false,
      "inputs": [],
      "name": "pickWinner",
      "outputs": [],
      "payable": true,
      "stateMutability": "payable",
      "type": "function"
    },
    {
      "constant": false,
      "inputs": [
        {
          "name": "",
          "type": "bytes32"
        },
        {
          "name": "result",
          "type": "string"
        }
      ],
      "name": "_callback",
      "outputs": [],
      "payable": false,
      "stateMutability": "nonpayable",
      "type": "function"
    }
  ],
  "bytecode": "0x6060604052604051604080611c168339810160405280805190602001909190805190602001909190505060003411151561003857600080fd5b8073ffffffffffffffffffffffffffffffffffffffff168273ffffffffffffffffffffffffffffffffffffffff161415151561007357600080fd5b736f485c8bf6fc43ea212e93bbf8ce046c7f1cb475600a60006101000a81548173ffffffffffffffffffffffffffffffffffffffff021916908373ffffffffffffffffffffffffffffffffffffffff160217905550346009819055506001600560006101000a81548160ff0219169083151502179055506000600560016101000a81548160ff02191690831515021790555081600660006101000a81548173ffffffffffffffffffffffffffffffffffffffff021916908373ffffffffffffffffffffffffffffffffffffffff16021790555080600560026101000a81548173ffffffffffffffffffffffffffffffffffffffff021916908373ffffffffffffffffffffffffffffffffffffffff1602179055505050611a7e806101986000396000f3006060604052600436106100db576000357c0100000000000000000000000000000000000000000000000000000000900463ffffffff1680631da13ae0146100e057806327dc297e146100ea57806338bbfa50146101545780633f6fa65514610201578063573255f41461022e5780635c320516146102835780635c39fcc11461029b5780635d495aea146102f0578063772d6354146102fa578063aa8c217c1461034f578063bdd4603314610378578063cee77be914610407578063dfbf53ae14610471578063e0caf578146104c6578063e20ccec3146104ff575b600080fd5b6100e861052c565b005b34156100f557600080fd5b61015260048080356000191690602001909190803590602001908201803590602001908080601f0160208091040260200160405190810160405280939291908181526020018383808284378201915050505050509190505061068b565b005b341561015f57600080fd5b6101ff60048080356000191690602001909190803590602001908201803590602001908080601f0160208091040260200160405190810160405280939291908181526020018383808284378201915050505050509190803590602001908201803590602001908080601f016020809104026020016040519081016040528093929190818152602001838380828437820191505050505050919050506106bd565b005b341561020c57600080fd5b6102146106c2565b604051808215151515815260200191505060405180910390f35b341561023957600080fd5b6102416106d5565b604051808273ffffffffffffffffffffffffffffffffffffffff1673ffffffffffffffffffffffffffffffffffffffff16815260200191505060405180910390f35b61029960048080359060200190919050506106fb565b005b34156102a657600080fd5b6102ae610827565b604051808273ffffffffffffffffffffffffffffffffffffffff1673ffffffffffffffffffffffffffffffffffffffff16815260200191505060405180910390f35b6102f861084d565b005b341561030557600080fd5b61030d61097f565b604051808273ffffffffffffffffffffffffffffffffffffffff1673ffffffffffffffffffffffffffffffffffffffff16815260200191505060405180910390f35b341561035a57600080fd5b6103626109a5565b6040518082815260200191505060405180910390f35b341561038357600080fd5b61038b6109ab565b604051808481526020018373ffffffffffffffffffffffffffffffffffffffff1673ffffffffffffffffffffffffffffffffffffffff1681526020018273ffffffffffffffffffffffffffffffffffffffff1673ffffffffffffffffffffffffffffffffffffffff168152602001935050505060405180910390f35b341561041257600080fd5b61046f60048080356000191690602001909190803590602001908201803590602001908080601f01602080910402602001604051908101604052809392919081815260200183838082843782019150505050505091905050610a04565b005b341561047c57600080fd5b610484610b7e565b604051808273ffffffffffffffffffffffffffffffffffffffff1673ffffffffffffffffffffffffffffffffffffffff16815260200191505060405180910390f35b34156104d157600080fd5b6104fd600480803573ffffffffffffffffffffffffffffffffffffffff16906020019091905050610ba4565b005b341561050a57600080fd5b610512610cd8565b604051808215151515815260200191505060405180910390f35b600560019054906101000a900460ff1615151561054857600080fd5b600560009054906101000a900460ff16151561056357600080fd5b6009543414151561057357600080fd5b600660009054906101000a900473ffffffffffffffffffffffffffffffffffffffff1673ffffffffffffffffffffffffffffffffffffffff163373ffffffffffffffffffffffffffffffffffffffff16141515156105d057600080fd5b600560029054906101000a900473ffffffffffffffffffffffffffffffffffffffff1673ffffffffffffffffffffffffffffffffffffffff163373ffffffffffffffffffffffffffffffffffffffff161415151561062d57600080fd5b33600760006101000a81548173ffffffffffffffffffffffffffffffffffffffff021916908373ffffffffffffffffffffffffffffffffffffffff1602179055506000600560006101000a81548160ff021916908315150217905550565b6106b98282600060405180591061069f5750595b9080825280601f01601f19166020018201604052506106bd565b5050565b505050565b600560019054906101000a900460ff1681565b600560029054906101000a900473ffffffffffffffffffffffffffffffffffffffff1681565b600660009054906101000a900473ffffffffffffffffffffffffffffffffffffffff1673ffffffffffffffffffffffffffffffffffffffff163373ffffffffffffffffffffffffffffffffffffffff1614151561075757600080fd5b600560019054906101000a900460ff1615151561077357600080fd5b600560009054906101000a900460ff16151561078e57600080fd5b6009548110806107a15750346009540181145b15156107ac57600080fd5b60095481101561081d57600660009054906101000a900473ffffffffffffffffffffffffffffffffffffffff1673ffffffffffffffffffffffffffffffffffffffff166108fc82600954039081150290604051600060405180830381858888f19350505050151561081c57600080fd5b5b8060098190555050565b600660009054906101000a900473ffffffffffffffffffffffffffffffffffffffff1681565b600560019054906101000a900460ff1615151561086957600080fd5b600560009054906101000a900460ff1615151561088557600080fd5b600560029054906101000a900473ffffffffffffffffffffffffffffffffffffffff1673ffffffffffffffffffffffffffffffffffffffff163373ffffffffffffffffffffffffffffffffffffffff161415156108e157600080fd5b61097c6040805190810160405280600381526020017f55524c0000000000000000000000000000000000000000000000000000000000815250606060405190810160405280603081526020017f6a736f6e28687474703a2f2f6170692e69636e64622e636f6d2f6a6f6b65732f81526020017f72616e646f6d292e76616c75652e696400000000000000000000000000000000815250610ceb565b50565b600760009054906101000a900473ffffffffffffffffffffffffffffffffffffffff1681565b60095481565b6000806000600954600560029054906101000a900473ffffffffffffffffffffffffffffffffffffffff16600660009054906101000a900473ffffffffffffffffffffffffffffffffffffffff16925092509250909192565b610a0c6111f9565b73ffffffffffffffffffffffffffffffffffffffff163373ffffffffffffffffffffffffffffffffffffffff16141515610a4557600080fd5b600160028251811515610a5457fe5b0414610a8257600760009054906101000a900473ffffffffffffffffffffffffffffffffffffffff16610aa6565b600660009054906101000a900473ffffffffffffffffffffffffffffffffffffffff165b600860006101000a81548173ffffffffffffffffffffffffffffffffffffffff021916908373ffffffffffffffffffffffffffffffffffffffff160217905550600860009054906101000a900473ffffffffffffffffffffffffffffffffffffffff1673ffffffffffffffffffffffffffffffffffffffff166108fc3073ffffffffffffffffffffffffffffffffffffffff16319081150290604051600060405180830381858888f193505050501515610b5f57600080fd5b6001600560016101000a81548160ff0219169083151502179055505050565b600860009054906101000a900473ffffffffffffffffffffffffffffffffffffffff1681565b600660009054906101000a900473ffffffffffffffffffffffffffffffffffffffff1673ffffffffffffffffffffffffffffffffffffffff163373ffffffffffffffffffffffffffffffffffffffff16141515610c0057600080fd5b600560019054906101000a900460ff16151515610c1c57600080fd5b600560009054906101000a900460ff161515610c3757600080fd5b600560029054906101000a900473ffffffffffffffffffffffffffffffffffffffff1673ffffffffffffffffffffffffffffffffffffffff168173ffffffffffffffffffffffffffffffffffffffff1614151515610c9457600080fd5b80600560026101000a81548173ffffffffffffffffffffffffffffffffffffffff021916908373ffffffffffffffffffffffffffffffffffffffff16021790555050565b600560009054906101000a900460ff1681565b60008060008060009054906101000a900473ffffffffffffffffffffffffffffffffffffffff1673ffffffffffffffffffffffffffffffffffffffff161480610d5d57506000610d5b6000809054906101000a900473ffffffffffffffffffffffffffffffffffffffff166114e8565b145b15610d6e57610d6c60006114f3565b505b6000809054906101000a900473ffffffffffffffffffffffffffffffffffffffff1673ffffffffffffffffffffffffffffffffffffffff166338cc48316040518163ffffffff167c0100000000000000000000000000000000000000000000000000000000028152600401602060405180830381600087803b1515610df257600080fd5b5af11515610dff57600080fd5b5050506040518051905073ffffffffffffffffffffffffffffffffffffffff16600160009054906101000a900473ffffffffffffffffffffffffffffffffffffffff1673ffffffffffffffffffffffffffffffffffffffff16141515610f3b576000809054906101000a900473ffffffffffffffffffffffffffffffffffffffff1673ffffffffffffffffffffffffffffffffffffffff166338cc48316040518163ffffffff167c0100000000000000000000000000000000000000000000000000000000028152600401602060405180830381600087803b1515610ee357600080fd5b5af11515610ef057600080fd5b50505060405180519050600160006101000a81548173ffffffffffffffffffffffffffffffffffffffff021916908373ffffffffffffffffffffffffffffffffffffffff1602179055505b600160009054906101000a900473ffffffffffffffffffffffffffffffffffffffff1673ffffffffffffffffffffffffffffffffffffffff1663524f3889856040518263ffffffff167c01000000000000000000000000000000000000000000000000000000000281526004018080602001828103825283818151815260200191508051906020019080838360005b83811015610fe5578082015181840152602081019050610fca565b50505050905090810190601f1680156110125780820380516001836020036101000a031916815260200191505b5092505050602060405180830381600087803b151561103057600080fd5b5af1151561103d57600080fd5b50505060405180519050905062030d403a02670de0b6b3a76400000181111561106c57600060010291506111f2565b600160009054906101000a900473ffffffffffffffffffffffffffffffffffffffff1673ffffffffffffffffffffffffffffffffffffffff1663adf59f9982600087876040518563ffffffff167c0100000000000000000000000000000000000000000000000000000000028152600401808481526020018060200180602001838103835285818151815260200191508051906020019080838360005b83811015611124578082015181840152602081019050611109565b50505050905090810190601f1680156111515780820380516001836020036101000a031916815260200191505b50838103825284818151815260200191508051906020019080838360005b8381101561118a57808201518184015260208101905061116f565b50505050905090810190601f1680156111b75780820380516001836020036101000a031916815260200191505b50955050505050506020604051808303818588803b15156111d757600080fd5b5af115156111e457600080fd5b505050506040518051905091505b5092915050565b6000806000809054906101000a900473ffffffffffffffffffffffffffffffffffffffff1673ffffffffffffffffffffffffffffffffffffffff161480611269575060006112676000809054906101000a900473ffffffffffffffffffffffffffffffffffffffff166114e8565b145b1561127a5761127860006114f3565b505b6000809054906101000a900473ffffffffffffffffffffffffffffffffffffffff1673ffffffffffffffffffffffffffffffffffffffff166338cc48316040518163ffffffff167c0100000000000000000000000000000000000000000000000000000000028152600401602060405180830381600087803b15156112fe57600080fd5b5af1151561130b57600080fd5b5050506040518051905073ffffffffffffffffffffffffffffffffffffffff16600160009054906101000a900473ffffffffffffffffffffffffffffffffffffffff1673ffffffffffffffffffffffffffffffffffffffff16141515611447576000809054906101000a900473ffffffffffffffffffffffffffffffffffffffff1673ffffffffffffffffffffffffffffffffffffffff166338cc48316040518163ffffffff167c0100000000000000000000000000000000000000000000000000000000028152600401602060405180830381600087803b15156113ef57600080fd5b5af115156113fc57600080fd5b50505060405180519050600160006101000a81548173ffffffffffffffffffffffffffffffffffffffff021916908373ffffffffffffffffffffffffffffffffffffffff1602179055505b600160009054906101000a900473ffffffffffffffffffffffffffffffffffffffff1673ffffffffffffffffffffffffffffffffffffffff1663c281d19e6040518163ffffffff167c0100000000000000000000000000000000000000000000000000000000028152600401602060405180830381600087803b15156114cc57600080fd5b5af115156114d957600080fd5b50505060405180519050905090565b6000813b9050919050565b60006114fd611504565b9050919050565b600080611524731d3b2638a7cc9f2cb3d298a3da7a90b67e5506ed6114e8565b11156115c557731d3b2638a7cc9f2cb3d298a3da7a90b67e5506ed6000806101000a81548173ffffffffffffffffffffffffffffffffffffffff021916908373ffffffffffffffffffffffffffffffffffffffff1602179055506115bc6040805190810160405280600b81526020017f6574685f6d61696e6e6574000000000000000000000000000000000000000000815250611993565b60019050611990565b60006115e473c03a2615d5efaf5f49f60b7bb6583eaec212fdf16114e8565b11156116855773c03a2615d5efaf5f49f60b7bb6583eaec212fdf16000806101000a81548173ffffffffffffffffffffffffffffffffffffffff021916908373ffffffffffffffffffffffffffffffffffffffff16021790555061167c6040805190810160405280600c81526020017f6574685f726f707374656e330000000000000000000000000000000000000000815250611993565b60019050611990565b60006116a473b7a07bcf2ba2f2703b24c0691b5278999c59ac7e6114e8565b11156117455773b7a07bcf2ba2f2703b24c0691b5278999c59ac7e6000806101000a81548173ffffffffffffffffffffffffffffffffffffffff021916908373ffffffffffffffffffffffffffffffffffffffff16021790555061173c6040805190810160405280600981526020017f6574685f6b6f76616e0000000000000000000000000000000000000000000000815250611993565b60019050611990565b600061176473146500cfd35b22e4a392fe0adc06de1a1368ed486114e8565b11156118055773146500cfd35b22e4a392fe0adc06de1a1368ed486000806101000a81548173ffffffffffffffffffffffffffffffffffffffff021916908373ffffffffffffffffffffffffffffffffffffffff1602179055506117fc6040805190810160405280600b81526020017f6574685f72696e6b656279000000000000000000000000000000000000000000815250611993565b60019050611990565b6000611824736f485c8bf6fc43ea212e93bbf8ce046c7f1cb4756114e8565b111561188757736f485c8bf6fc43ea212e93bbf8ce046c7f1cb4756000806101000a81548173ffffffffffffffffffffffffffffffffffffffff021916908373ffffffffffffffffffffffffffffffffffffffff16021790555060019050611990565b60006118a67320e12a1f859b3feae5fb2a0a32c18f5a65555bbf6114e8565b1115611909577320e12a1f859b3feae5fb2a0a32c18f5a65555bbf6000806101000a81548173ffffffffffffffffffffffffffffffffffffffff021916908373ffffffffffffffffffffffffffffffffffffffff16021790555060019050611990565b60006119287351efaf4c8b3c9afbd5ab9f4bbc82784ab6ef8faa6114e8565b111561198b577351efaf4c8b3c9afbd5ab9f4bbc82784ab6ef8faa6000806101000a81548173ffffffffffffffffffffffffffffffffffffffff021916908373ffffffffffffffffffffffffffffffffffffffff16021790555060019050611990565b600090505b90565b80600290805190602001906119a99291906119ad565b5050565b828054600181600116156101000203166002900490600052602060002090601f016020900481019282601f106119ee57805160ff1916838001178555611a1c565b82800160010185558215611a1c579182015b82811115611a1b578251825591602001919060010190611a00565b5b509050611a299190611a2d565b5090565b611a4f91905b80821115611a4b576000816000905550600101611a33565b5090565b905600a165627a7a723058201623658ba0afd03cd6137bca62a6c23025b4fe00784efb8d7a3ccb5fac81e8400029",
  "source": "pragma solidity ^0.4.21;\n\nimport \"../ethereum-api/oraclizeAPI_0.5.sol\";\n\ncontract Wager is usingOraclize {\n    bool public pending;\n    bool public resolved;\n    address public judge;\n    address public initiator;\n    address public acceptor;\n    address public winner;\n    uint public amount;\n\n    OraclizeAddrResolverI private OAR;\n\n    function Wager(address initiatorAddress, address judgeAddress) public payable {\n        require(msg.value > 0);\n        require(initiatorAddress != judgeAddress);\n\n        OAR = OraclizeAddrResolverI(0x6f485C8BF6fc43eA212E93BBF8ce046C7f1cb475);\n\n        amount = msg.value;\n        pending = true;\n        resolved = false;\n        initiator = initiatorAddress;\n        judge = judgeAddress;\n    }\n\n    function viewConditions() public view returns (uint, address, address) {\n        return (amount, judge, initiator);\n    }\n\n    modifier onlyPending() {\n        require(!resolved);\n        require(pending);\n        _;\n    }\n\n    modifier onlyNotPending() {\n        require(!resolved);\n        require(!pending);\n        _;\n    }\n\n    modifier onlyInitiator() {\n        require(msg.sender == initiator);\n        _;\n    }\n\n    modifier onlyJudge() {\n        require(msg.sender == judge);\n        _;\n    }\n\n    function changeJudge(address newAddress) public onlyInitiator onlyPending {\n        require(newAddress != judge);\n        judge = newAddress;\n    }\n\n    function changeAmount(uint newAmount) public payable onlyInitiator onlyPending {\n        require (newAmount < amount || (newAmount == amount + msg.value));\n        if (newAmount < amount) {\n            initiator.transfer(amount - newAmount);\n        }\n        amount = newAmount;\n    }\n\n    function takeWager() public payable onlyPending {\n        require(msg.value == amount);\n        require(msg.sender != initiator);\n        require(msg.sender != judge);\n        acceptor = msg.sender;\n        pending = false;\n    }\n\n    function pickWinner() public payable onlyNotPending onlyJudge {\n        oraclize_query(\"URL\", \"json(http://api.icndb.com/jokes/random).value.id\");\n    }\n\n    function _callback(bytes32 , string result) public {\n        require(msg.sender == oraclize_cbAddress());\n\n        winner = (bytes(result).length / 2 == 1) ? initiator : acceptor;\n        winner.transfer(address(this).balance);\n        resolved = true;\n    }\n}\n",
  "sourcePath": "/Users/dmitrisavitski/EthereumProjects/Practice/truffle-test/contracts/Wager.sol",
  "compiler": {
    "name": "solc",
    "version": "0.4.21+commit.dfe3193c.Emscripten.clang"
  },
  "schemaVersion": "2.0.0",
  "updatedAt": "2018-04-21T07:49:31.103Z"
}