{
  "contractName": "Wager",
  "abi": [
    {
      "constant": true,
      "inputs": [],
      "name": "judge",
      "outputs": [
        {
          "name": "",
          "type": "address"
        }
      ],
      "payable": false,
      "stateMutability": "view",
      "type": "function"
    },
    {
      "constant": true,
      "inputs": [],
      "name": "initiator",
      "outputs": [
        {
          "name": "",
          "type": "address"
        }
      ],
      "payable": false,
      "stateMutability": "view",
      "type": "function"
    },
    {
      "constant": true,
      "inputs": [],
      "name": "acceptor",
      "outputs": [
        {
          "name": "",
          "type": "address"
        }
      ],
      "payable": false,
      "stateMutability": "view",
      "type": "function"
    },
    {
      "constant": true,
      "inputs": [],
      "name": "amount",
      "outputs": [
        {
          "name": "",
          "type": "uint256"
        }
      ],
      "payable": false,
      "stateMutability": "view",
      "type": "function"
    },
    {
      "constant": true,
      "inputs": [],
      "name": "pending",
      "outputs": [
        {
          "name": "",
          "type": "bool"
        }
      ],
      "payable": false,
      "stateMutability": "view",
      "type": "function"
    },
    {
      "inputs": [
        {
          "name": "initiatorAdress",
          "type": "address"
        },
        {
          "name": "trustedAddress",
          "type": "address"
        }
      ],
      "payable": true,
      "stateMutability": "payable",
      "type": "constructor"
    },
    {
      "anonymous": false,
      "inputs": [
        {
          "indexed": false,
          "name": "initiator",
          "type": "address"
        },
        {
          "indexed": false,
          "name": "judge",
          "type": "address"
        },
        {
          "indexed": false,
          "name": "amount",
          "type": "uint256"
        }
      ],
      "name": "WagerProposed",
      "type": "event"
    },
    {
      "anonymous": false,
      "inputs": [
        {
          "indexed": false,
          "name": "acceptor",
          "type": "address"
        },
        {
          "indexed": false,
          "name": "amount",
          "type": "uint256"
        }
      ],
      "name": "WagerTaken",
      "type": "event"
    },
    {
      "constant": true,
      "inputs": [],
      "name": "viewConditions",
      "outputs": [
        {
          "name": "",
          "type": "uint256"
        },
        {
          "name": "",
          "type": "address"
        },
        {
          "name": "",
          "type": "address"
        }
      ],
      "payable": false,
      "stateMutability": "view",
      "type": "function"
    },
    {
      "constant": false,
      "inputs": [
        {
          "name": "newAddress",
          "type": "address"
        }
      ],
      "name": "changeJudge",
      "outputs": [],
      "payable": false,
      "stateMutability": "nonpayable",
      "type": "function"
    },
    {
      "constant": false,
      "inputs": [
        {
          "name": "newAmount",
          "type": "uint256"
        }
      ],
      "name": "changeAmount",
      "outputs": [],
      "payable": true,
      "stateMutability": "payable",
      "type": "function"
    },
    {
      "constant": false,
      "inputs": [],
      "name": "takeWager",
      "outputs": [],
      "payable": true,
      "stateMutability": "payable",
      "type": "function"
    },
    {
      "constant": false,
      "inputs": [
        {
          "name": "initiatorWon",
          "type": "bool"
        }
      ],
      "name": "pickWinner",
      "outputs": [],
      "payable": false,
      "stateMutability": "nonpayable",
      "type": "function"
    }
  ],
  "bytecode": "0x6060604052604051604080610c6f8339810160405280805190602001909190805190602001909190505060003411151561003857600080fd5b8073ffffffffffffffffffffffffffffffffffffffff168273ffffffffffffffffffffffffffffffffffffffff161415151561007357600080fd5b3460038190555060016000806101000a81548160ff02191690831515021790555081600160006101000a81548173ffffffffffffffffffffffffffffffffffffffff021916908373ffffffffffffffffffffffffffffffffffffffff16021790555080600060016101000a81548173ffffffffffffffffffffffffffffffffffffffff021916908373ffffffffffffffffffffffffffffffffffffffff1602179055507f530015a837be377111c2e15f5145942f3288671a56a4acdd9ae99db08288e372600160009054906101000a900473ffffffffffffffffffffffffffffffffffffffff16600060019054906101000a900473ffffffffffffffffffffffffffffffffffffffff16600354604051808473ffffffffffffffffffffffffffffffffffffffff1673ffffffffffffffffffffffffffffffffffffffff1681526020018373ffffffffffffffffffffffffffffffffffffffff1673ffffffffffffffffffffffffffffffffffffffff168152602001828152602001935050505060405180910390a15050610a638061020c6000396000f3006060604052600436106100a4576000357c0100000000000000000000000000000000000000000000000000000000900463ffffffff1680631da13ae0146100a957806341d8ab8e146100b3578063573255f4146100d85780635c3205161461012d5780635c39fcc114610145578063772d63541461019a578063aa8c217c146101ef578063bdd4603314610218578063e0caf578146102a7578063e20ccec3146102e0575b600080fd5b6100b161030d565b005b34156100be57600080fd5b6100d660048080351515906020019091905050610423565b005b34156100e357600080fd5b6100eb610564565b604051808273ffffffffffffffffffffffffffffffffffffffff1673ffffffffffffffffffffffffffffffffffffffff16815260200191505060405180910390f35b610143600480803590602001909190505061058a565b005b341561015057600080fd5b61015861077e565b604051808273ffffffffffffffffffffffffffffffffffffffff1673ffffffffffffffffffffffffffffffffffffffff16815260200191505060405180910390f35b34156101a557600080fd5b6101ad6107a4565b604051808273ffffffffffffffffffffffffffffffffffffffff1673ffffffffffffffffffffffffffffffffffffffff16815260200191505060405180910390f35b34156101fa57600080fd5b6102026107ca565b6040518082815260200191505060405180910390f35b341561022357600080fd5b61022b6107d0565b604051808481526020018373ffffffffffffffffffffffffffffffffffffffff1673ffffffffffffffffffffffffffffffffffffffff1681526020018273ffffffffffffffffffffffffffffffffffffffff1673ffffffffffffffffffffffffffffffffffffffff168152602001935050505060405180910390f35b34156102b257600080fd5b6102de600480803573ffffffffffffffffffffffffffffffffffffffff16906020019091905050610829565b005b34156102eb57600080fd5b6102f3610a25565b604051808215151515815260200191505060405180910390f35b6000809054906101000a900460ff16151561032757600080fd5b6003543414151561033757600080fd5b33600260006101000a81548173ffffffffffffffffffffffffffffffffffffffff021916908373ffffffffffffffffffffffffffffffffffffffff16021790555060008060006101000a81548160ff0219169083151502179055507fd835bd9d9426075715a86c0bae7e707f553076cd9925a12f94f9f7286d0e47c8600260009054906101000a900473ffffffffffffffffffffffffffffffffffffffff16600354604051808373ffffffffffffffffffffffffffffffffffffffff1673ffffffffffffffffffffffffffffffffffffffff1681526020018281526020019250505060405180910390a1565b60008060009054906101000a900460ff1615151561044057600080fd5b600060019054906101000a900473ffffffffffffffffffffffffffffffffffffffff1673ffffffffffffffffffffffffffffffffffffffff163373ffffffffffffffffffffffffffffffffffffffff1614151561049c57600080fd5b816104c957600260009054906101000a900473ffffffffffffffffffffffffffffffffffffffff166104ed565b600160009054906101000a900473ffffffffffffffffffffffffffffffffffffffff165b90508073ffffffffffffffffffffffffffffffffffffffff166108fc3073ffffffffffffffffffffffffffffffffffffffff16319081150290604051600060405180830381858888f19350505050151561054657600080fd5b60016000806101000a81548160ff0219169083151502179055505050565b600060019054906101000a900473ffffffffffffffffffffffffffffffffffffffff1681565b600160009054906101000a900473ffffffffffffffffffffffffffffffffffffffff1673ffffffffffffffffffffffffffffffffffffffff163373ffffffffffffffffffffffffffffffffffffffff161415156105e657600080fd5b6000809054906101000a900460ff16151561060057600080fd5b6003548110806106135750346003540181145b151561061e57600080fd5b60035481101561068f57600160009054906101000a900473ffffffffffffffffffffffffffffffffffffffff1673ffffffffffffffffffffffffffffffffffffffff166108fc82600354039081150290604051600060405180830381858888f19350505050151561068e57600080fd5b5b806003819055507f530015a837be377111c2e15f5145942f3288671a56a4acdd9ae99db08288e372600160009054906101000a900473ffffffffffffffffffffffffffffffffffffffff16600060019054906101000a900473ffffffffffffffffffffffffffffffffffffffff16600354604051808473ffffffffffffffffffffffffffffffffffffffff1673ffffffffffffffffffffffffffffffffffffffff1681526020018373ffffffffffffffffffffffffffffffffffffffff1673ffffffffffffffffffffffffffffffffffffffff168152602001828152602001935050505060405180910390a150565b600160009054906101000a900473ffffffffffffffffffffffffffffffffffffffff1681565b600260009054906101000a900473ffffffffffffffffffffffffffffffffffffffff1681565b60035481565b6000806000600354600060019054906101000a900473ffffffffffffffffffffffffffffffffffffffff16600160009054906101000a900473ffffffffffffffffffffffffffffffffffffffff16925092509250909192565b600160009054906101000a900473ffffffffffffffffffffffffffffffffffffffff1673ffffffffffffffffffffffffffffffffffffffff163373ffffffffffffffffffffffffffffffffffffffff1614151561088557600080fd5b6000809054906101000a900460ff16151561089f57600080fd5b600060019054906101000a900473ffffffffffffffffffffffffffffffffffffffff1673ffffffffffffffffffffffffffffffffffffffff168173ffffffffffffffffffffffffffffffffffffffff16141515156108fc57600080fd5b80600060016101000a81548173ffffffffffffffffffffffffffffffffffffffff021916908373ffffffffffffffffffffffffffffffffffffffff1602179055507f530015a837be377111c2e15f5145942f3288671a56a4acdd9ae99db08288e372600160009054906101000a900473ffffffffffffffffffffffffffffffffffffffff16600060019054906101000a900473ffffffffffffffffffffffffffffffffffffffff16600354604051808473ffffffffffffffffffffffffffffffffffffffff1673ffffffffffffffffffffffffffffffffffffffff1681526020018373ffffffffffffffffffffffffffffffffffffffff1673ffffffffffffffffffffffffffffffffffffffff168152602001828152602001935050505060405180910390a150565b6000809054906101000a900460ff16815600a165627a7a72305820170c78231610947ca4252d8b9835b0885120083941cfa285e9eee9ca35ef53500029",
  "source": "pragma solidity ^0.4.21;\n\ncontract Wager {\n    bool public pending;\n    address public judge;\n    address public initiator;\n    address public acceptor;\n    uint public amount;\n\n    event WagerProposed(address initiator, address judge, uint amount);\n    event WagerTaken(address acceptor, uint amount);\n\n    function Wager(address initiatorAdress, address trustedAddress) public payable {\n      require(msg.value > 0);\n      require(initiatorAdress != trustedAddress);\n      amount = msg.value;\n      pending = true;\n      initiator = initiatorAdress;\n      judge = trustedAddress;\n\n      emit WagerProposed(initiator, judge, amount);\n    }\n\n    function viewConditions() public view returns (uint, address, address) {\n      return (amount, judge, initiator);\n    }\n\n    modifier onlyPending() {\n      require(pending);\n      _;\n    }\n\n    modifier onlyNotPending() {\n      require(!pending);\n      _;\n    }\n\n    modifier onlyInitiator() {\n      require(msg.sender == initiator);\n      _;\n    }\n\n    modifier onlyJudge() {\n      require(msg.sender == judge);\n      _;\n    }\n\n    function changeJudge(address newAddress) public onlyInitiator onlyPending {\n      require(newAddress != judge);\n      judge = newAddress;\n      emit WagerProposed(initiator, judge, amount);\n    }\n\n    function changeAmount(uint newAmount) public payable onlyInitiator onlyPending {\n      require (newAmount < amount || (newAmount == amount + msg.value));\n      if (newAmount < amount) {\n        initiator.transfer(amount - newAmount);\n      }\n      amount = newAmount;\n      emit WagerProposed(initiator, judge, amount);\n    }\n\n    function takeWager() public payable onlyPending {\n      require(msg.value == amount);\n      acceptor = msg.sender;\n      pending = false;\n      emit WagerTaken(acceptor, amount);\n    }\n\n    function pickWinner(bool initiatorWon) public onlyNotPending onlyJudge {\n      address winnerAddress = initiatorWon ? initiator : acceptor;\n      winnerAddress.transfer(address(this).balance);\n      pending = true;\n    }\n}\n",
  "sourcePath": "/Users/dmitrisavitski/EthereumProjects/Practice/truffle-test/contracts/Wager.sol",
  "compiler": {
    "name": "solc",
    "version": "0.4.21+commit.dfe3193c.Emscripten.clang"
  },
  "schemaVersion": "2.0.0",
  "updatedAt": "2018-04-13T17:36:12.831Z"
}