{
  "contractName": "Wager",
  "abi": [
    {
      "constant": true,
      "inputs": [],
      "name": "resolved",
      "outputs": [
        {
          "name": "",
          "type": "bool"
        }
      ],
      "payable": false,
      "stateMutability": "view",
      "type": "function"
    },
    {
      "constant": true,
      "inputs": [],
      "name": "judge",
      "outputs": [
        {
          "name": "",
          "type": "address"
        }
      ],
      "payable": false,
      "stateMutability": "view",
      "type": "function"
    },
    {
      "constant": true,
      "inputs": [],
      "name": "initiator",
      "outputs": [
        {
          "name": "",
          "type": "address"
        }
      ],
      "payable": false,
      "stateMutability": "view",
      "type": "function"
    },
    {
      "constant": true,
      "inputs": [],
      "name": "acceptor",
      "outputs": [
        {
          "name": "",
          "type": "address"
        }
      ],
      "payable": false,
      "stateMutability": "view",
      "type": "function"
    },
    {
      "constant": true,
      "inputs": [],
      "name": "amount",
      "outputs": [
        {
          "name": "",
          "type": "uint256"
        }
      ],
      "payable": false,
      "stateMutability": "view",
      "type": "function"
    },
    {
      "constant": true,
      "inputs": [],
      "name": "winner",
      "outputs": [
        {
          "name": "",
          "type": "address"
        }
      ],
      "payable": false,
      "stateMutability": "view",
      "type": "function"
    },
    {
      "constant": true,
      "inputs": [],
      "name": "pending",
      "outputs": [
        {
          "name": "",
          "type": "bool"
        }
      ],
      "payable": false,
      "stateMutability": "view",
      "type": "function"
    },
    {
      "inputs": [
        {
          "name": "initiatorAddress",
          "type": "address"
        },
        {
          "name": "judgeAddress",
          "type": "address"
        }
      ],
      "payable": true,
      "stateMutability": "payable",
      "type": "constructor"
    },
    {
      "constant": true,
      "inputs": [],
      "name": "viewConditions",
      "outputs": [
        {
          "name": "",
          "type": "uint256"
        },
        {
          "name": "",
          "type": "address"
        },
        {
          "name": "",
          "type": "address"
        }
      ],
      "payable": false,
      "stateMutability": "view",
      "type": "function"
    },
    {
      "constant": false,
      "inputs": [
        {
          "name": "newAddress",
          "type": "address"
        }
      ],
      "name": "changeJudge",
      "outputs": [],
      "payable": false,
      "stateMutability": "nonpayable",
      "type": "function"
    },
    {
      "constant": false,
      "inputs": [
        {
          "name": "newAmount",
          "type": "uint256"
        }
      ],
      "name": "changeAmount",
      "outputs": [],
      "payable": true,
      "stateMutability": "payable",
      "type": "function"
    },
    {
      "constant": false,
      "inputs": [],
      "name": "takeWager",
      "outputs": [],
      "payable": true,
      "stateMutability": "payable",
      "type": "function"
    },
    {
      "constant": false,
      "inputs": [],
      "name": "pickWinner",
      "outputs": [],
      "payable": true,
      "stateMutability": "payable",
      "type": "function"
    },
    {
      "constant": false,
      "inputs": [
        {
          "name": "myid",
          "type": "bytes32"
        },
        {
          "name": "result",
          "type": "string"
        }
      ],
      "name": "__callback",
      "outputs": [],
      "payable": false,
      "stateMutability": "nonpayable",
      "type": "function"
    },
    {
      "constant": false,
      "inputs": [
        {
          "name": "myid",
          "type": "bytes32"
        },
        {
          "name": "result",
          "type": "string"
        },
        {
          "name": "proof",
          "type": "bytes"
        }
      ],
      "name": "__callback",
      "outputs": [],
      "payable": false,
      "stateMutability": "nonpayable",
      "type": "function"
    }
  ],
  "bytecode": "0x6060604052604051604080611b6f8339810160405280805190602001909190805190602001909190505060003411151561003857600080fd5b8073ffffffffffffffffffffffffffffffffffffffff168273ffffffffffffffffffffffffffffffffffffffff161415151561007357600080fd5b736f485c8bf6fc43ea212e93bbf8ce046c7f1cb475600a60006101000a81548173ffffffffffffffffffffffffffffffffffffffff021916908373ffffffffffffffffffffffffffffffffffffffff160217905550346009819055506001600560006101000a81548160ff0219169083151502179055506000600560016101000a81548160ff02191690831515021790555081600660006101000a81548173ffffffffffffffffffffffffffffffffffffffff021916908373ffffffffffffffffffffffffffffffffffffffff16021790555080600560026101000a81548173ffffffffffffffffffffffffffffffffffffffff021916908373ffffffffffffffffffffffffffffffffffffffff16021790555050506119d7806101986000396000f3006060604052600436106100d0576000357c0100000000000000000000000000000000000000000000000000000000900463ffffffff1680631da13ae0146100d557806327dc297e146100df57806338bbfa50146101495780633f6fa655146101f6578063573255f4146102235780635c320516146102785780635c39fcc1146102905780635d495aea146102e5578063772d6354146102ef578063aa8c217c14610344578063bdd460331461036d578063dfbf53ae146103fc578063e0caf57814610451578063e20ccec31461048a575b600080fd5b6100dd6104b7565b005b34156100ea57600080fd5b61014760048080356000191690602001909190803590602001908201803590602001908080601f01602080910402602001604051908101604052809392919081815260200183838082843782019150505050505091905050610616565b005b341561015457600080fd5b6101f460048080356000191690602001909190803590602001908201803590602001908080601f0160208091040260200160405190810160405280939291908181526020018383808284378201915050505050509190803590602001908201803590602001908080601f01602080910402602001604051908101604052809392919081815260200183838082843782019150505050505091905050610790565b005b341561020157600080fd5b610209610795565b604051808215151515815260200191505060405180910390f35b341561022e57600080fd5b6102366107a8565b604051808273ffffffffffffffffffffffffffffffffffffffff1673ffffffffffffffffffffffffffffffffffffffff16815260200191505060405180910390f35b61028e60048080359060200190919050506107ce565b005b341561029b57600080fd5b6102a36108fa565b604051808273ffffffffffffffffffffffffffffffffffffffff1673ffffffffffffffffffffffffffffffffffffffff16815260200191505060405180910390f35b6102ed610920565b005b34156102fa57600080fd5b610302610a52565b604051808273ffffffffffffffffffffffffffffffffffffffff1673ffffffffffffffffffffffffffffffffffffffff16815260200191505060405180910390f35b341561034f57600080fd5b610357610a78565b6040518082815260200191505060405180910390f35b341561037857600080fd5b610380610a7e565b604051808481526020018373ffffffffffffffffffffffffffffffffffffffff1673ffffffffffffffffffffffffffffffffffffffff1681526020018273ffffffffffffffffffffffffffffffffffffffff1673ffffffffffffffffffffffffffffffffffffffff168152602001935050505060405180910390f35b341561040757600080fd5b61040f610ad7565b604051808273ffffffffffffffffffffffffffffffffffffffff1673ffffffffffffffffffffffffffffffffffffffff16815260200191505060405180910390f35b341561045c57600080fd5b610488600480803573ffffffffffffffffffffffffffffffffffffffff16906020019091905050610afd565b005b341561049557600080fd5b61049d610c31565b604051808215151515815260200191505060405180910390f35b600560019054906101000a900460ff161515156104d357600080fd5b600560009054906101000a900460ff1615156104ee57600080fd5b600954341415156104fe57600080fd5b600660009054906101000a900473ffffffffffffffffffffffffffffffffffffffff1673ffffffffffffffffffffffffffffffffffffffff163373ffffffffffffffffffffffffffffffffffffffff161415151561055b57600080fd5b600560029054906101000a900473ffffffffffffffffffffffffffffffffffffffff1673ffffffffffffffffffffffffffffffffffffffff163373ffffffffffffffffffffffffffffffffffffffff16141515156105b857600080fd5b33600760006101000a81548173ffffffffffffffffffffffffffffffffffffffff021916908373ffffffffffffffffffffffffffffffffffffffff1602179055506000600560006101000a81548160ff021916908315150217905550565b61061e610c44565b73ffffffffffffffffffffffffffffffffffffffff163373ffffffffffffffffffffffffffffffffffffffff1614151561065757600080fd5b60016002825181151561066657fe5b041461069457600760009054906101000a900473ffffffffffffffffffffffffffffffffffffffff166106b8565b600660009054906101000a900473ffffffffffffffffffffffffffffffffffffffff165b600860006101000a81548173ffffffffffffffffffffffffffffffffffffffff021916908373ffffffffffffffffffffffffffffffffffffffff160217905550600860009054906101000a900473ffffffffffffffffffffffffffffffffffffffff1673ffffffffffffffffffffffffffffffffffffffff166108fc3073ffffffffffffffffffffffffffffffffffffffff16319081150290604051600060405180830381858888f19350505050151561077157600080fd5b6001600560016101000a81548160ff0219169083151502179055505050565b505050565b600560019054906101000a900460ff1681565b600560029054906101000a900473ffffffffffffffffffffffffffffffffffffffff1681565b600660009054906101000a900473ffffffffffffffffffffffffffffffffffffffff1673ffffffffffffffffffffffffffffffffffffffff163373ffffffffffffffffffffffffffffffffffffffff1614151561082a57600080fd5b600560019054906101000a900460ff1615151561084657600080fd5b600560009054906101000a900460ff16151561086157600080fd5b6009548110806108745750346009540181145b151561087f57600080fd5b6009548110156108f057600660009054906101000a900473ffffffffffffffffffffffffffffffffffffffff1673ffffffffffffffffffffffffffffffffffffffff166108fc82600954039081150290604051600060405180830381858888f1935050505015156108ef57600080fd5b5b8060098190555050565b600660009054906101000a900473ffffffffffffffffffffffffffffffffffffffff1681565b600560019054906101000a900460ff1615151561093c57600080fd5b600560009054906101000a900460ff1615151561095857600080fd5b600560029054906101000a900473ffffffffffffffffffffffffffffffffffffffff1673ffffffffffffffffffffffffffffffffffffffff163373ffffffffffffffffffffffffffffffffffffffff161415156109b457600080fd5b610a4f6040805190810160405280600381526020017f55524c0000000000000000000000000000000000000000000000000000000000815250606060405190810160405280603081526020017f6a736f6e28687474703a2f2f6170692e69636e64622e636f6d2f6a6f6b65732f81526020017f72616e646f6d292e76616c75652e696400000000000000000000000000000000815250610f33565b50565b600760009054906101000a900473ffffffffffffffffffffffffffffffffffffffff1681565b60095481565b6000806000600954600560029054906101000a900473ffffffffffffffffffffffffffffffffffffffff16600660009054906101000a900473ffffffffffffffffffffffffffffffffffffffff16925092509250909192565b600860009054906101000a900473ffffffffffffffffffffffffffffffffffffffff1681565b600660009054906101000a900473ffffffffffffffffffffffffffffffffffffffff1673ffffffffffffffffffffffffffffffffffffffff163373ffffffffffffffffffffffffffffffffffffffff16141515610b5957600080fd5b600560019054906101000a900460ff16151515610b7557600080fd5b600560009054906101000a900460ff161515610b9057600080fd5b600560029054906101000a900473ffffffffffffffffffffffffffffffffffffffff1673ffffffffffffffffffffffffffffffffffffffff168173ffffffffffffffffffffffffffffffffffffffff1614151515610bed57600080fd5b80600560026101000a81548173ffffffffffffffffffffffffffffffffffffffff021916908373ffffffffffffffffffffffffffffffffffffffff16021790555050565b600560009054906101000a900460ff1681565b6000806000809054906101000a900473ffffffffffffffffffffffffffffffffffffffff1673ffffffffffffffffffffffffffffffffffffffff161480610cb457506000610cb26000809054906101000a900473ffffffffffffffffffffffffffffffffffffffff16611441565b145b15610cc557610cc3600061144c565b505b6000809054906101000a900473ffffffffffffffffffffffffffffffffffffffff1673ffffffffffffffffffffffffffffffffffffffff166338cc48316040518163ffffffff167c0100000000000000000000000000000000000000000000000000000000028152600401602060405180830381600087803b1515610d4957600080fd5b5af11515610d5657600080fd5b5050506040518051905073ffffffffffffffffffffffffffffffffffffffff16600160009054906101000a900473ffffffffffffffffffffffffffffffffffffffff1673ffffffffffffffffffffffffffffffffffffffff16141515610e92576000809054906101000a900473ffffffffffffffffffffffffffffffffffffffff1673ffffffffffffffffffffffffffffffffffffffff166338cc48316040518163ffffffff167c0100000000000000000000000000000000000000000000000000000000028152600401602060405180830381600087803b1515610e3a57600080fd5b5af11515610e4757600080fd5b50505060405180519050600160006101000a81548173ffffffffffffffffffffffffffffffffffffffff021916908373ffffffffffffffffffffffffffffffffffffffff1602179055505b600160009054906101000a900473ffffffffffffffffffffffffffffffffffffffff1673ffffffffffffffffffffffffffffffffffffffff1663c281d19e6040518163ffffffff167c0100000000000000000000000000000000000000000000000000000000028152600401602060405180830381600087803b1515610f1757600080fd5b5af11515610f2457600080fd5b50505060405180519050905090565b60008060008060009054906101000a900473ffffffffffffffffffffffffffffffffffffffff1673ffffffffffffffffffffffffffffffffffffffff161480610fa557506000610fa36000809054906101000a900473ffffffffffffffffffffffffffffffffffffffff16611441565b145b15610fb657610fb4600061144c565b505b6000809054906101000a900473ffffffffffffffffffffffffffffffffffffffff1673ffffffffffffffffffffffffffffffffffffffff166338cc48316040518163ffffffff167c0100000000000000000000000000000000000000000000000000000000028152600401602060405180830381600087803b151561103a57600080fd5b5af1151561104757600080fd5b5050506040518051905073ffffffffffffffffffffffffffffffffffffffff16600160009054906101000a900473ffffffffffffffffffffffffffffffffffffffff1673ffffffffffffffffffffffffffffffffffffffff16141515611183576000809054906101000a900473ffffffffffffffffffffffffffffffffffffffff1673ffffffffffffffffffffffffffffffffffffffff166338cc48316040518163ffffffff167c0100000000000000000000000000000000000000000000000000000000028152600401602060405180830381600087803b151561112b57600080fd5b5af1151561113857600080fd5b50505060405180519050600160006101000a81548173ffffffffffffffffffffffffffffffffffffffff021916908373ffffffffffffffffffffffffffffffffffffffff1602179055505b600160009054906101000a900473ffffffffffffffffffffffffffffffffffffffff1673ffffffffffffffffffffffffffffffffffffffff1663524f3889856040518263ffffffff167c01000000000000000000000000000000000000000000000000000000000281526004018080602001828103825283818151815260200191508051906020019080838360005b8381101561122d578082015181840152602081019050611212565b50505050905090810190601f16801561125a5780820380516001836020036101000a031916815260200191505b5092505050602060405180830381600087803b151561127857600080fd5b5af1151561128557600080fd5b50505060405180519050905062030d403a02670de0b6b3a7640000018111156112b4576000600102915061143a565b600160009054906101000a900473ffffffffffffffffffffffffffffffffffffffff1673ffffffffffffffffffffffffffffffffffffffff1663adf59f9982600087876040518563ffffffff167c0100000000000000000000000000000000000000000000000000000000028152600401808481526020018060200180602001838103835285818151815260200191508051906020019080838360005b8381101561136c578082015181840152602081019050611351565b50505050905090810190601f1680156113995780820380516001836020036101000a031916815260200191505b50838103825284818151815260200191508051906020019080838360005b838110156113d25780820151818401526020810190506113b7565b50505050905090810190601f1680156113ff5780820380516001836020036101000a031916815260200191505b50955050505050506020604051808303818588803b151561141f57600080fd5b5af1151561142c57600080fd5b505050506040518051905091505b5092915050565b6000813b9050919050565b600061145661145d565b9050919050565b60008061147d731d3b2638a7cc9f2cb3d298a3da7a90b67e5506ed611441565b111561151e57731d3b2638a7cc9f2cb3d298a3da7a90b67e5506ed6000806101000a81548173ffffffffffffffffffffffffffffffffffffffff021916908373ffffffffffffffffffffffffffffffffffffffff1602179055506115156040805190810160405280600b81526020017f6574685f6d61696e6e65740000000000000000000000000000000000000000008152506118ec565b600190506118e9565b600061153d73c03a2615d5efaf5f49f60b7bb6583eaec212fdf1611441565b11156115de5773c03a2615d5efaf5f49f60b7bb6583eaec212fdf16000806101000a81548173ffffffffffffffffffffffffffffffffffffffff021916908373ffffffffffffffffffffffffffffffffffffffff1602179055506115d56040805190810160405280600c81526020017f6574685f726f707374656e3300000000000000000000000000000000000000008152506118ec565b600190506118e9565b60006115fd73b7a07bcf2ba2f2703b24c0691b5278999c59ac7e611441565b111561169e5773b7a07bcf2ba2f2703b24c0691b5278999c59ac7e6000806101000a81548173ffffffffffffffffffffffffffffffffffffffff021916908373ffffffffffffffffffffffffffffffffffffffff1602179055506116956040805190810160405280600981526020017f6574685f6b6f76616e00000000000000000000000000000000000000000000008152506118ec565b600190506118e9565b60006116bd73146500cfd35b22e4a392fe0adc06de1a1368ed48611441565b111561175e5773146500cfd35b22e4a392fe0adc06de1a1368ed486000806101000a81548173ffffffffffffffffffffffffffffffffffffffff021916908373ffffffffffffffffffffffffffffffffffffffff1602179055506117556040805190810160405280600b81526020017f6574685f72696e6b6562790000000000000000000000000000000000000000008152506118ec565b600190506118e9565b600061177d736f485c8bf6fc43ea212e93bbf8ce046c7f1cb475611441565b11156117e057736f485c8bf6fc43ea212e93bbf8ce046c7f1cb4756000806101000a81548173ffffffffffffffffffffffffffffffffffffffff021916908373ffffffffffffffffffffffffffffffffffffffff160217905550600190506118e9565b60006117ff7320e12a1f859b3feae5fb2a0a32c18f5a65555bbf611441565b1115611862577320e12a1f859b3feae5fb2a0a32c18f5a65555bbf6000806101000a81548173ffffffffffffffffffffffffffffffffffffffff021916908373ffffffffffffffffffffffffffffffffffffffff160217905550600190506118e9565b60006118817351efaf4c8b3c9afbd5ab9f4bbc82784ab6ef8faa611441565b11156118e4577351efaf4c8b3c9afbd5ab9f4bbc82784ab6ef8faa6000806101000a81548173ffffffffffffffffffffffffffffffffffffffff021916908373ffffffffffffffffffffffffffffffffffffffff160217905550600190506118e9565b600090505b90565b8060029080519060200190611902929190611906565b5050565b828054600181600116156101000203166002900490600052602060002090601f016020900481019282601f1061194757805160ff1916838001178555611975565b82800160010185558215611975579182015b82811115611974578251825591602001919060010190611959565b5b5090506119829190611986565b5090565b6119a891905b808211156119a457600081600090555060010161198c565b5090565b905600a165627a7a72305820eb3bc91f01426e5f9602d1937311d1d42cf50936308158c360f3d7c30198735d0029",
  "source": "pragma solidity ^0.4.21;\n\nimport \"../ethereum-api/oraclizeAPI_0.5.sol\";\n\ncontract Wager is usingOraclize {\n    bool public pending;\n    bool public resolved;\n    address public judge;\n    address public initiator;\n    address public acceptor;\n    address public winner;\n    uint public amount;\n\n    OraclizeAddrResolverI private OAR;\n\n    function Wager(address initiatorAddress, address judgeAddress) public payable {\n        require(msg.value > 0);\n        require(initiatorAddress != judgeAddress);\n\n        OAR = OraclizeAddrResolverI(0x6f485C8BF6fc43eA212E93BBF8ce046C7f1cb475);\n\n        amount = msg.value;\n        pending = true;\n        resolved = false;\n        initiator = initiatorAddress;\n        judge = judgeAddress;\n    }\n\n    function viewConditions() public view returns (uint, address, address) {\n        return (amount, judge, initiator);\n    }\n\n    modifier onlyPending() {\n        require(!resolved);\n        require(pending);\n        _;\n    }\n\n    modifier onlyNotPending() {\n        require(!resolved);\n        require(!pending);\n        _;\n    }\n\n    modifier onlyInitiator() {\n        require(msg.sender == initiator);\n        _;\n    }\n\n    modifier onlyJudge() {\n        require(msg.sender == judge);\n        _;\n    }\n\n    function changeJudge(address newAddress) public onlyInitiator onlyPending {\n        require(newAddress != judge);\n        judge = newAddress;\n    }\n\n    function changeAmount(uint newAmount) public payable onlyInitiator onlyPending {\n        require (newAmount < amount || (newAmount == amount + msg.value));\n        if (newAmount < amount) {\n            initiator.transfer(amount - newAmount);\n        }\n        amount = newAmount;\n    }\n\n    function takeWager() public payable onlyPending {\n        require(msg.value == amount);\n        require(msg.sender != initiator);\n        require(msg.sender != judge);\n        acceptor = msg.sender;\n        pending = false;\n    }\n\n    function pickWinner() public payable onlyNotPending onlyJudge {\n        oraclize_query(\"URL\", \"json(http://api.icndb.com/jokes/random).value.id\");\n    }\n\n    function __callback(bytes32 myid, string result) public {\n        require(msg.sender == oraclize_cbAddress());\n\n        winner = (bytes(result).length / 2 == 1) ? initiator : acceptor;\n        winner.transfer(address(this).balance);\n        resolved = true;\n    }\n}\n",
  "sourcePath": "/Users/dmitrisavitski/EthereumProjects/Practice/truffle-test/contracts/Wager.sol",
  "compiler": {
    "name": "solc",
    "version": "0.4.21+commit.dfe3193c.Emscripten.clang"
  },
  "schemaVersion": "2.0.0",
  "updatedAt": "2018-04-21T08:08:56.221Z"
}