{
  "contractName": "Wager",
  "abi": [
    {
      "constant": true,
      "inputs": [],
      "name": "judge",
      "outputs": [
        {
          "name": "",
          "type": "address"
        }
      ],
      "payable": false,
      "stateMutability": "view",
      "type": "function"
    },
    {
      "constant": true,
      "inputs": [],
      "name": "initiator",
      "outputs": [
        {
          "name": "",
          "type": "address"
        }
      ],
      "payable": false,
      "stateMutability": "view",
      "type": "function"
    },
    {
      "constant": true,
      "inputs": [],
      "name": "acceptor",
      "outputs": [
        {
          "name": "",
          "type": "address"
        }
      ],
      "payable": false,
      "stateMutability": "view",
      "type": "function"
    },
    {
      "constant": true,
      "inputs": [],
      "name": "amount",
      "outputs": [
        {
          "name": "",
          "type": "uint256"
        }
      ],
      "payable": false,
      "stateMutability": "view",
      "type": "function"
    },
    {
      "constant": true,
      "inputs": [],
      "name": "pending",
      "outputs": [
        {
          "name": "",
          "type": "bool"
        }
      ],
      "payable": false,
      "stateMutability": "view",
      "type": "function"
    },
    {
      "inputs": [
        {
          "name": "initiatorAdress",
          "type": "address"
        }
      ],
      "payable": true,
      "stateMutability": "payable",
      "type": "constructor"
    },
    {
      "constant": true,
      "inputs": [],
      "name": "viewConditions",
      "outputs": [
        {
          "name": "",
          "type": "uint256"
        },
        {
          "name": "",
          "type": "address"
        },
        {
          "name": "",
          "type": "address"
        }
      ],
      "payable": false,
      "stateMutability": "view",
      "type": "function"
    },
    {
      "constant": false,
      "inputs": [
        {
          "name": "newAddress",
          "type": "address"
        }
      ],
      "name": "changeJudge",
      "outputs": [],
      "payable": false,
      "stateMutability": "nonpayable",
      "type": "function"
    },
    {
      "constant": false,
      "inputs": [
        {
          "name": "newAmount",
          "type": "uint256"
        }
      ],
      "name": "changeAmount",
      "outputs": [],
      "payable": true,
      "stateMutability": "payable",
      "type": "function"
    },
    {
      "constant": false,
      "inputs": [],
      "name": "takeWager",
      "outputs": [],
      "payable": true,
      "stateMutability": "payable",
      "type": "function"
    },
    {
      "constant": false,
      "inputs": [
        {
          "name": "initiatorWon",
          "type": "bool"
        }
      ],
      "name": "pickWinner",
      "outputs": [],
      "payable": false,
      "stateMutability": "nonpayable",
      "type": "function"
    }
  ],
  "bytecode": "0x60606040526040516020806109278339810160405280805190602001909190505060003411151561002f57600080fd5b3373ffffffffffffffffffffffffffffffffffffffff168173ffffffffffffffffffffffffffffffffffffffff161415151561006a57600080fd5b3460038190555060016000806101000a81548160ff02191690831515021790555080600160006101000a81548173ffffffffffffffffffffffffffffffffffffffff021916908373ffffffffffffffffffffffffffffffffffffffff16021790555033600060016101000a81548173ffffffffffffffffffffffffffffffffffffffff021916908373ffffffffffffffffffffffffffffffffffffffff1602179055505061080a8061011d6000396000f3006060604052600436106100a4576000357c0100000000000000000000000000000000000000000000000000000000900463ffffffff1680631da13ae0146100a957806341d8ab8e146100b3578063573255f4146100d85780635c3205161461012d5780635c39fcc114610145578063772d63541461019a578063aa8c217c146101ef578063bdd4603314610218578063e0caf578146102a7578063e20ccec3146102e0575b600080fd5b6100b161030d565b005b34156100be57600080fd5b6100d660048080351515906020019091905050610394565b005b34156100e357600080fd5b6100eb6104d5565b604051808273ffffffffffffffffffffffffffffffffffffffff1673ffffffffffffffffffffffffffffffffffffffff16815260200191505060405180910390f35b61014360048080359060200190919050506104fb565b005b341561015057600080fd5b61015861060a565b604051808273ffffffffffffffffffffffffffffffffffffffff1673ffffffffffffffffffffffffffffffffffffffff16815260200191505060405180910390f35b34156101a557600080fd5b6101ad610630565b604051808273ffffffffffffffffffffffffffffffffffffffff1673ffffffffffffffffffffffffffffffffffffffff16815260200191505060405180910390f35b34156101fa57600080fd5b610202610656565b6040518082815260200191505060405180910390f35b341561022357600080fd5b61022b61065c565b604051808481526020018373ffffffffffffffffffffffffffffffffffffffff1673ffffffffffffffffffffffffffffffffffffffff1681526020018273ffffffffffffffffffffffffffffffffffffffff1673ffffffffffffffffffffffffffffffffffffffff168152602001935050505060405180910390f35b34156102b257600080fd5b6102de600480803573ffffffffffffffffffffffffffffffffffffffff169060200190919050506106b5565b005b34156102eb57600080fd5b6102f36107cc565b604051808215151515815260200191505060405180910390f35b6000809054906101000a900460ff16151561032757600080fd5b6003543414151561033757600080fd5b33600260006101000a81548173ffffffffffffffffffffffffffffffffffffffff021916908373ffffffffffffffffffffffffffffffffffffffff16021790555060008060006101000a81548160ff021916908315150217905550565b60008060009054906101000a900460ff161515156103b157600080fd5b600060019054906101000a900473ffffffffffffffffffffffffffffffffffffffff1673ffffffffffffffffffffffffffffffffffffffff163373ffffffffffffffffffffffffffffffffffffffff1614151561040d57600080fd5b8161043a57600260009054906101000a900473ffffffffffffffffffffffffffffffffffffffff1661045e565b600160009054906101000a900473ffffffffffffffffffffffffffffffffffffffff165b90508073ffffffffffffffffffffffffffffffffffffffff166108fc3073ffffffffffffffffffffffffffffffffffffffff16319081150290604051600060405180830381858888f1935050505015156104b757600080fd5b60016000806101000a81548160ff0219169083151502179055505050565b600060019054906101000a900473ffffffffffffffffffffffffffffffffffffffff1681565b600160009054906101000a900473ffffffffffffffffffffffffffffffffffffffff1673ffffffffffffffffffffffffffffffffffffffff163373ffffffffffffffffffffffffffffffffffffffff1614151561055757600080fd5b6000809054906101000a900460ff16151561057157600080fd5b6003548110806105845750346003540181145b151561058f57600080fd5b60035481101561060057600160009054906101000a900473ffffffffffffffffffffffffffffffffffffffff1673ffffffffffffffffffffffffffffffffffffffff166108fc82600354039081150290604051600060405180830381858888f1935050505015156105ff57600080fd5b5b8060038190555050565b600160009054906101000a900473ffffffffffffffffffffffffffffffffffffffff1681565b600260009054906101000a900473ffffffffffffffffffffffffffffffffffffffff1681565b60035481565b6000806000600354600060019054906101000a900473ffffffffffffffffffffffffffffffffffffffff16600160009054906101000a900473ffffffffffffffffffffffffffffffffffffffff16925092509250909192565b600160009054906101000a900473ffffffffffffffffffffffffffffffffffffffff1673ffffffffffffffffffffffffffffffffffffffff163373ffffffffffffffffffffffffffffffffffffffff1614151561071157600080fd5b6000809054906101000a900460ff16151561072b57600080fd5b600060019054906101000a900473ffffffffffffffffffffffffffffffffffffffff1673ffffffffffffffffffffffffffffffffffffffff168173ffffffffffffffffffffffffffffffffffffffff161415151561078857600080fd5b80600060016101000a81548173ffffffffffffffffffffffffffffffffffffffff021916908373ffffffffffffffffffffffffffffffffffffffff16021790555050565b6000809054906101000a900460ff16815600a165627a7a7230582062d2b9470b83281c18bcf5f477f972139e0295f83aac9e936e552e50588d874c0029",
  "source": "pragma solidity ^0.4.21;\n\ncontract Wager {\n    bool public pending;\n    address public judge;\n    address public initiator;\n    address public acceptor;\n    uint public amount;\n\n    function Wager(address initiatorAdress) public payable {\n      require(msg.value > 0);\n      require(initiatorAdress != msg.sender);\n      amount = msg.value;\n      pending = true;\n      initiator = initiatorAdress;\n      judge = msg.sender;\n    }\n\n    function viewConditions() public view returns (uint, address, address) {\n      return (amount, judge, initiator);\n    }\n\n    modifier onlyPending() {\n      require(pending);\n      _;\n    }\n\n    modifier onlyNotPending() {\n      require(!pending);\n      _;\n    }\n\n    modifier onlyInitiator() {\n      require(msg.sender == initiator);\n      _;\n    }\n\n    modifier onlyJudge() {\n      require(msg.sender == judge);\n      _;\n    }\n\n    function changeJudge(address newAddress) public onlyInitiator onlyPending {\n      require(newAddress != judge);\n      judge = newAddress;\n    }\n\n    function changeAmount(uint newAmount) public payable onlyInitiator onlyPending {\n      require (newAmount < amount || (newAmount == amount + msg.value));\n      if (newAmount < amount) {\n        initiator.transfer(amount - newAmount);\n      }\n      amount = newAmount;\n    }\n\n    function takeWager() public payable onlyPending {\n      require(msg.value == amount);\n      acceptor = msg.sender;\n      pending = false;\n    }\n\n    function pickWinner(bool initiatorWon) public onlyNotPending onlyJudge {\n      address winnerAddress = initiatorWon ? initiator : acceptor;\n      winnerAddress.transfer(address(this).balance);\n      pending = true;\n    }\n}\n",
  "sourcePath": "/Users/dmitrisavitski/EthereumProjects/Practice/truffle-test/contracts/Wager.sol",
  "compiler": {
    "name": "solc",
    "version": "0.4.21+commit.dfe3193c.Emscripten.clang"
  },
  "schemaVersion": "2.0.0",
  "updatedAt": "2018-04-13T22:13:04.560Z"
}