{
  "contractName": "WagerFactory",
  "abi": [
    {
      "constant": true,
      "inputs": [
        {
          "name": "",
          "type": "uint256"
        }
      ],
      "name": "wagers",
      "outputs": [
        {
          "name": "",
          "type": "address"
        }
      ],
      "payable": false,
      "stateMutability": "view",
      "type": "function"
    },
    {
      "constant": true,
      "inputs": [],
      "name": "factoryOwner",
      "outputs": [
        {
          "name": "",
          "type": "address"
        }
      ],
      "payable": false,
      "stateMutability": "view",
      "type": "function"
    },
    {
      "constant": true,
      "inputs": [],
      "name": "testValue",
      "outputs": [
        {
          "name": "",
          "type": "uint8"
        }
      ],
      "payable": false,
      "stateMutability": "view",
      "type": "function"
    },
    {
      "inputs": [],
      "payable": false,
      "stateMutability": "nonpayable",
      "type": "constructor"
    },
    {
      "constant": true,
      "inputs": [],
      "name": "getWagersCount",
      "outputs": [
        {
          "name": "",
          "type": "uint256"
        }
      ],
      "payable": false,
      "stateMutability": "view",
      "type": "function"
    },
    {
      "constant": false,
      "inputs": [],
      "name": "incrementTestValue",
      "outputs": [],
      "payable": false,
      "stateMutability": "nonpayable",
      "type": "function"
    },
    {
      "constant": false,
      "inputs": [],
      "name": "offerWager",
      "outputs": [],
      "payable": true,
      "stateMutability": "payable",
      "type": "function"
    }
  ],
  "bytecode": "0x6060604052341561000f57600080fd5b336000806101000a81548173ffffffffffffffffffffffffffffffffffffffff021916908373ffffffffffffffffffffffffffffffffffffffff1602179055506000600260006101000a81548160ff021916908360ff1602179055506110718061007a6000396000f300606060405260043610610078576000357c0100000000000000000000000000000000000000000000000000000000900463ffffffff168063375068e51461007d5780634273601c146100e057806356671372146101355780638af5de721461014a57806397d3c21a14610179578063b6ee6abb146101a2575b600080fd5b341561008857600080fd5b61009e60048080359060200190919050506101ac565b604051808273ffffffffffffffffffffffffffffffffffffffff1673ffffffffffffffffffffffffffffffffffffffff16815260200191505060405180910390f35b34156100eb57600080fd5b6100f36101eb565b604051808273ffffffffffffffffffffffffffffffffffffffff1673ffffffffffffffffffffffffffffffffffffffff16815260200191505060405180910390f35b341561014057600080fd5b610148610210565b005b341561015557600080fd5b61015d61023f565b604051808260ff1660ff16815260200191505060405180910390f35b341561018457600080fd5b61018c610252565b6040518082815260200191505060405180910390f35b6101aa61025f565b005b6001818154811015156101bb57fe5b90600052602060002090016000915054906101000a900473ffffffffffffffffffffffffffffffffffffffff1681565b6000809054906101000a900473ffffffffffffffffffffffffffffffffffffffff1681565b6001600260009054906101000a900460ff1601600260006101000a81548160ff021916908360ff160217905550565b600260009054906101000a900460ff1681565b6000600180549050905090565b600034336000809054906101000a900473ffffffffffffffffffffffffffffffffffffffff1661028d610375565b808373ffffffffffffffffffffffffffffffffffffffff1673ffffffffffffffffffffffffffffffffffffffff1681526020018273ffffffffffffffffffffffffffffffffffffffff1673ffffffffffffffffffffffffffffffffffffffff168152602001925050506040518091039082f080151561030b57600080fd5b90509050600180548060010182816103239190610385565b9160005260206000209001600083909190916101000a81548173ffffffffffffffffffffffffffffffffffffffff021916908373ffffffffffffffffffffffffffffffffffffffff1602179055505050565b604051610c6f806103d783390190565b8154818355818115116103ac578183600052602060002091820191016103ab91906103b1565b5b505050565b6103d391905b808211156103cf5760008160009055506001016103b7565b5090565b9056006060604052604051604080610c6f8339810160405280805190602001909190805190602001909190505060003411151561003857600080fd5b8073ffffffffffffffffffffffffffffffffffffffff168273ffffffffffffffffffffffffffffffffffffffff161415151561007357600080fd5b3460038190555060016000806101000a81548160ff02191690831515021790555081600160006101000a81548173ffffffffffffffffffffffffffffffffffffffff021916908373ffffffffffffffffffffffffffffffffffffffff16021790555080600060016101000a81548173ffffffffffffffffffffffffffffffffffffffff021916908373ffffffffffffffffffffffffffffffffffffffff1602179055507f530015a837be377111c2e15f5145942f3288671a56a4acdd9ae99db08288e372600160009054906101000a900473ffffffffffffffffffffffffffffffffffffffff16600060019054906101000a900473ffffffffffffffffffffffffffffffffffffffff16600354604051808473ffffffffffffffffffffffffffffffffffffffff1673ffffffffffffffffffffffffffffffffffffffff1681526020018373ffffffffffffffffffffffffffffffffffffffff1673ffffffffffffffffffffffffffffffffffffffff168152602001828152602001935050505060405180910390a15050610a638061020c6000396000f3006060604052600436106100a4576000357c0100000000000000000000000000000000000000000000000000000000900463ffffffff1680631da13ae0146100a957806341d8ab8e146100b3578063573255f4146100d85780635c3205161461012d5780635c39fcc114610145578063772d63541461019a578063aa8c217c146101ef578063bdd4603314610218578063e0caf578146102a7578063e20ccec3146102e0575b600080fd5b6100b161030d565b005b34156100be57600080fd5b6100d660048080351515906020019091905050610423565b005b34156100e357600080fd5b6100eb610564565b604051808273ffffffffffffffffffffffffffffffffffffffff1673ffffffffffffffffffffffffffffffffffffffff16815260200191505060405180910390f35b610143600480803590602001909190505061058a565b005b341561015057600080fd5b61015861077e565b604051808273ffffffffffffffffffffffffffffffffffffffff1673ffffffffffffffffffffffffffffffffffffffff16815260200191505060405180910390f35b34156101a557600080fd5b6101ad6107a4565b604051808273ffffffffffffffffffffffffffffffffffffffff1673ffffffffffffffffffffffffffffffffffffffff16815260200191505060405180910390f35b34156101fa57600080fd5b6102026107ca565b6040518082815260200191505060405180910390f35b341561022357600080fd5b61022b6107d0565b604051808481526020018373ffffffffffffffffffffffffffffffffffffffff1673ffffffffffffffffffffffffffffffffffffffff1681526020018273ffffffffffffffffffffffffffffffffffffffff1673ffffffffffffffffffffffffffffffffffffffff168152602001935050505060405180910390f35b34156102b257600080fd5b6102de600480803573ffffffffffffffffffffffffffffffffffffffff16906020019091905050610829565b005b34156102eb57600080fd5b6102f3610a25565b604051808215151515815260200191505060405180910390f35b6000809054906101000a900460ff16151561032757600080fd5b6003543414151561033757600080fd5b33600260006101000a81548173ffffffffffffffffffffffffffffffffffffffff021916908373ffffffffffffffffffffffffffffffffffffffff16021790555060008060006101000a81548160ff0219169083151502179055507fd835bd9d9426075715a86c0bae7e707f553076cd9925a12f94f9f7286d0e47c8600260009054906101000a900473ffffffffffffffffffffffffffffffffffffffff16600354604051808373ffffffffffffffffffffffffffffffffffffffff1673ffffffffffffffffffffffffffffffffffffffff1681526020018281526020019250505060405180910390a1565b60008060009054906101000a900460ff1615151561044057600080fd5b600060019054906101000a900473ffffffffffffffffffffffffffffffffffffffff1673ffffffffffffffffffffffffffffffffffffffff163373ffffffffffffffffffffffffffffffffffffffff1614151561049c57600080fd5b816104c957600260009054906101000a900473ffffffffffffffffffffffffffffffffffffffff166104ed565b600160009054906101000a900473ffffffffffffffffffffffffffffffffffffffff165b90508073ffffffffffffffffffffffffffffffffffffffff166108fc3073ffffffffffffffffffffffffffffffffffffffff16319081150290604051600060405180830381858888f19350505050151561054657600080fd5b60016000806101000a81548160ff0219169083151502179055505050565b600060019054906101000a900473ffffffffffffffffffffffffffffffffffffffff1681565b600160009054906101000a900473ffffffffffffffffffffffffffffffffffffffff1673ffffffffffffffffffffffffffffffffffffffff163373ffffffffffffffffffffffffffffffffffffffff161415156105e657600080fd5b6000809054906101000a900460ff16151561060057600080fd5b6003548110806106135750346003540181145b151561061e57600080fd5b60035481101561068f57600160009054906101000a900473ffffffffffffffffffffffffffffffffffffffff1673ffffffffffffffffffffffffffffffffffffffff166108fc82600354039081150290604051600060405180830381858888f19350505050151561068e57600080fd5b5b806003819055507f530015a837be377111c2e15f5145942f3288671a56a4acdd9ae99db08288e372600160009054906101000a900473ffffffffffffffffffffffffffffffffffffffff16600060019054906101000a900473ffffffffffffffffffffffffffffffffffffffff16600354604051808473ffffffffffffffffffffffffffffffffffffffff1673ffffffffffffffffffffffffffffffffffffffff1681526020018373ffffffffffffffffffffffffffffffffffffffff1673ffffffffffffffffffffffffffffffffffffffff168152602001828152602001935050505060405180910390a150565b600160009054906101000a900473ffffffffffffffffffffffffffffffffffffffff1681565b600260009054906101000a900473ffffffffffffffffffffffffffffffffffffffff1681565b60035481565b6000806000600354600060019054906101000a900473ffffffffffffffffffffffffffffffffffffffff16600160009054906101000a900473ffffffffffffffffffffffffffffffffffffffff16925092509250909192565b600160009054906101000a900473ffffffffffffffffffffffffffffffffffffffff1673ffffffffffffffffffffffffffffffffffffffff163373ffffffffffffffffffffffffffffffffffffffff1614151561088557600080fd5b6000809054906101000a900460ff16151561089f57600080fd5b600060019054906101000a900473ffffffffffffffffffffffffffffffffffffffff1673ffffffffffffffffffffffffffffffffffffffff168173ffffffffffffffffffffffffffffffffffffffff16141515156108fc57600080fd5b80600060016101000a81548173ffffffffffffffffffffffffffffffffffffffff021916908373ffffffffffffffffffffffffffffffffffffffff1602179055507f530015a837be377111c2e15f5145942f3288671a56a4acdd9ae99db08288e372600160009054906101000a900473ffffffffffffffffffffffffffffffffffffffff16600060019054906101000a900473ffffffffffffffffffffffffffffffffffffffff16600354604051808473ffffffffffffffffffffffffffffffffffffffff1673ffffffffffffffffffffffffffffffffffffffff1681526020018373ffffffffffffffffffffffffffffffffffffffff1673ffffffffffffffffffffffffffffffffffffffff168152602001828152602001935050505060405180910390a150565b6000809054906101000a900460ff16815600a165627a7a72305820170c78231610947ca4252d8b9835b0885120083941cfa285e9eee9ca35ef53500029a165627a7a72305820d8ad9ebb91a724c116e5a2278b5fcdf2cec21f3748a9b706ec1f3b2c5c32527e0029",
  "source": "pragma solidity ^0.4.21;\n\nimport './Wager.sol';\n\ncontract WagerFactory {\n  address public factoryOwner;\n  address[] public wagers;\n  uint8 public testValue;\n\n\n  function WagerFactory() public {\n    factoryOwner = msg.sender;\n    testValue = 0;\n  }\n\n  function getWagersCount() public view returns(uint) {\n    return wagers.length;\n  }\n\n  function incrementTestValue() public {\n    testValue = testValue + 1;\n  }\n\n  function offerWager() public payable {\n    Wager newWager = (new Wager).value(msg.value)(msg.sender, factoryOwner);\n    wagers.push(address(newWager));\n  }\n}\n",
  "sourcePath": "/Users/dmitrisavitski/EthereumProjects/Practice/truffle-test/contracts/WagerFactory.sol",
  "compiler": {
    "name": "solc",
    "version": "0.4.21+commit.dfe3193c.Emscripten.clang"
  },
  "schemaVersion": "2.0.0",
  "updatedAt": "2018-04-13T21:41:41.247Z"
}